{
  "contractName": "LuxuryJewelry",
  "abi": [
    {
      "inputs": [],
      "stateMutability": "nonpayable",
      "type": "constructor"
    },
    {
      "anonymous": false,
      "inputs": [
        {
          "indexed": true,
          "internalType": "uint256",
          "name": "id",
          "type": "uint256"
        },
        {
          "indexed": false,
          "internalType": "string",
          "name": "infoType",
          "type": "string"
        },
        {
          "indexed": false,
          "internalType": "string",
          "name": "info",
          "type": "string"
        }
      ],
      "name": "JewelryInfoUpdated",
      "type": "event"
    },
    {
      "anonymous": false,
      "inputs": [
        {
          "indexed": true,
          "internalType": "uint256",
          "name": "id",
          "type": "uint256"
        },
        {
          "indexed": true,
          "internalType": "address",
          "name": "owner",
          "type": "address"
        }
      ],
      "name": "JewelryIssued",
      "type": "event"
    },
    {
      "anonymous": false,
      "inputs": [
        {
          "indexed": true,
          "internalType": "uint256",
          "name": "id",
          "type": "uint256"
        },
        {
          "indexed": true,
          "internalType": "address",
          "name": "from",
          "type": "address"
        },
        {
          "indexed": true,
          "internalType": "address",
          "name": "to",
          "type": "address"
        }
      ],
      "name": "OwnershipTransferred",
      "type": "event"
    },
    {
      "inputs": [],
      "name": "admin",
      "outputs": [
        {
          "internalType": "address",
          "name": "",
          "type": "address"
        }
      ],
      "stateMutability": "view",
      "type": "function",
      "constant": true
    },
    {
      "inputs": [
        {
          "internalType": "uint256",
          "name": "",
          "type": "uint256"
        }
      ],
      "name": "jewelryItems",
      "outputs": [
        {
          "internalType": "uint256",
          "name": "id",
          "type": "uint256"
        },
        {
          "internalType": "string",
          "name": "description",
          "type": "string"
        },
        {
          "internalType": "address",
          "name": "currentOwner",
          "type": "address"
        },
        {
          "internalType": "bool",
          "name": "isIssued",
          "type": "bool"
        },
        {
          "internalType": "string",
          "name": "miningInfo",
          "type": "string"
        },
        {
          "internalType": "string",
          "name": "cuttingInfo",
          "type": "string"
        },
        {
          "internalType": "string",
          "name": "engravingInfo",
          "type": "string"
        },
        {
          "internalType": "string",
          "name": "makingInfo",
          "type": "string"
        },
        {
          "internalType": "string",
          "name": "ownershipHistory",
          "type": "string"
        }
      ],
      "stateMutability": "view",
      "type": "function",
      "constant": true
    },
    {
      "inputs": [
        {
          "internalType": "uint256",
          "name": "_id",
          "type": "uint256"
        },
        {
          "internalType": "string",
          "name": "_description",
          "type": "string"
        },
        {
          "internalType": "address",
          "name": "_owner",
          "type": "address"
        }
      ],
      "name": "issueJewelryItem",
      "outputs": [],
      "stateMutability": "nonpayable",
      "type": "function"
    },
    {
      "inputs": [
        {
          "internalType": "uint256",
          "name": "_id",
          "type": "uint256"
        },
        {
          "internalType": "address",
          "name": "_newOwner",
          "type": "address"
        }
      ],
      "name": "transferOwnership",
      "outputs": [],
      "stateMutability": "nonpayable",
      "type": "function"
    },
    {
      "inputs": [
        {
          "internalType": "uint256",
          "name": "_id",
          "type": "uint256"
        },
        {
          "internalType": "string",
          "name": "_miningInfo",
          "type": "string"
        },
        {
          "internalType": "string",
          "name": "_cuttingInfo",
          "type": "string"
        },
        {
          "internalType": "string",
          "name": "_engravingInfo",
          "type": "string"
        },
        {
          "internalType": "string",
          "name": "_makingInfo",
          "type": "string"
        }
      ],
      "name": "updateJewelryInfo",
      "outputs": [],
      "stateMutability": "nonpayable",
      "type": "function"
    },
    {
      "inputs": [
        {
          "internalType": "address",
          "name": "_user",
          "type": "address"
        }
      ],
      "name": "authorizeUser",
      "outputs": [],
      "stateMutability": "nonpayable",
      "type": "function"
    },
    {
      "inputs": [
        {
          "internalType": "address",
          "name": "_user",
          "type": "address"
        }
      ],
      "name": "revokeUser",
      "outputs": [],
      "stateMutability": "nonpayable",
      "type": "function"
    }
  ],
  "bytecode": "0x608060405234801561001057600080fd5b5033600160006101000a81548173ffffffffffffffffffffffffffffffffffffffff021916908373ffffffffffffffffffffffffffffffffffffffff160217905550611dd8806100616000396000f3fe608060405234801561001057600080fd5b506004361061007d5760003560e01c8063a23fb7ae1161005b578063a23fb7ae146100d6578063a2b6b3ab1461010e578063ef097fc41461012a578063f851a440146101465761007d565b806329507f73146100825780634cdae9691461009e57806367c2a360146100ba575b600080fd5b61009c600480360381019061009791906113fa565b610164565b005b6100b860048036038101906100b3919061149d565b610383565b005b6100d460048036038101906100cf91906113a8565b610556565b005b6100f060048036038101906100eb91906113d1565b610641565b604051610105999897969594939291906119cd565b60405180910390f35b61012860048036038101906101239190611436565b6109ec565b005b610144600480360381019061013f91906113a8565b610d01565b005b61014e610dec565b60405161015b91906118df565b60405180910390f35b60008083815260200190815260200160002060020160149054906101000a900460ff166101c6576040517f08c379a00000000000000000000000000000000000000000000000000000000081526004016101bd9061192d565b60405180910390fd5b60008083815260200190815260200160002060020160009054906101000a900473ffffffffffffffffffffffffffffffffffffffff1673ffffffffffffffffffffffffffffffffffffffff163373ffffffffffffffffffffffffffffffffffffffff1614610269576040517f08c379a00000000000000000000000000000000000000000000000000000000081526004016102609061196d565b60405180910390fd5b8060008084815260200190815260200160002060020160006101000a81548173ffffffffffffffffffffffffffffffffffffffff021916908373ffffffffffffffffffffffffffffffffffffffff1602179055506000808381526020019081526020016000206007016102db82610e12565b6040516020016102ec9291906118b0565b6040516020818303038152906040526000808481526020019081526020016000206007019080519060200190610323929190611273565b508073ffffffffffffffffffffffffffffffffffffffff163373ffffffffffffffffffffffffffffffffffffffff16837f16b85f49bf01212961345d3016c9a531894accf62eb7680f2045d79185cc0ec060405160405180910390a45050565b600260003373ffffffffffffffffffffffffffffffffffffffff1673ffffffffffffffffffffffffffffffffffffffff16815260200190815260200160002060009054906101000a900460ff1661040f576040517f08c379a0000000000000000000000000000000000000000000000000000000008152600401610406906119ad565b60405180910390fd5b60008086815260200190815260200160002060020160149054906101000a900460ff16610471576040517f08c379a00000000000000000000000000000000000000000000000000000000081526004016104689061192d565b60405180910390fd5b83600080878152602001908152602001600020600301908051906020019061049a929190611273565b508260008087815260200190815260200160002060040190805190602001906104c4929190611273565b508160008087815260200190815260200160002060050190805190602001906104ee929190611273565b50806000808781526020019081526020016000206006019080519060200190610518929190611273565b50847f5a4a730e3a721f3345dea05fc9a075fccc19f5a2acc232b9f5fca830c71d6325604051610547906118fa565b60405180910390a25050505050565b600160009054906101000a900473ffffffffffffffffffffffffffffffffffffffff1673ffffffffffffffffffffffffffffffffffffffff163373ffffffffffffffffffffffffffffffffffffffff16146105e6576040517f08c379a00000000000000000000000000000000000000000000000000000000081526004016105dd9061198d565b60405180910390fd5b6001600260008373ffffffffffffffffffffffffffffffffffffffff1673ffffffffffffffffffffffffffffffffffffffff16815260200190815260200160002060006101000a81548160ff02191690831515021790555050565b600060205280600052604060002060009150905080600001549080600101805461066a90611c5b565b80601f016020809104026020016040519081016040528092919081815260200182805461069690611c5b565b80156106e35780601f106106b8576101008083540402835291602001916106e3565b820191906000526020600020905b8154815290600101906020018083116106c657829003601f168201915b5050505050908060020160009054906101000a900473ffffffffffffffffffffffffffffffffffffffff16908060020160149054906101000a900460ff169080600301805461073190611c5b565b80601f016020809104026020016040519081016040528092919081815260200182805461075d90611c5b565b80156107aa5780601f1061077f576101008083540402835291602001916107aa565b820191906000526020600020905b81548152906001019060200180831161078d57829003601f168201915b5050505050908060040180546107bf90611c5b565b80601f01602080910402602001604051908101604052809291908181526020018280546107eb90611c5b565b80156108385780601f1061080d57610100808354040283529160200191610838565b820191906000526020600020905b81548152906001019060200180831161081b57829003601f168201915b50505050509080600501805461084d90611c5b565b80601f016020809104026020016040519081016040528092919081815260200182805461087990611c5b565b80156108c65780601f1061089b576101008083540402835291602001916108c6565b820191906000526020600020905b8154815290600101906020018083116108a957829003601f168201915b5050505050908060060180546108db90611c5b565b80601f016020809104026020016040519081016040528092919081815260200182805461090790611c5b565b80156109545780601f1061092957610100808354040283529160200191610954565b820191906000526020600020905b81548152906001019060200180831161093757829003601f168201915b50505050509080600701805461096990611c5b565b80601f016020809104026020016040519081016040528092919081815260200182805461099590611c5b565b80156109e25780601f106109b7576101008083540402835291602001916109e2565b820191906000526020600020905b8154815290600101906020018083116109c557829003601f168201915b5050505050905089565b600160009054906101000a900473ffffffffffffffffffffffffffffffffffffffff1673ffffffffffffffffffffffffffffffffffffffff163373ffffffffffffffffffffffffffffffffffffffff1614610a7c576040517f08c379a0000000000000000000000000000000000000000000000000000000008152600401610a739061198d565b60405180910390fd5b60008084815260200190815260200160002060020160149054906101000a900460ff1615610adf576040517f08c379a0000000000000000000000000000000000000000000000000000000008152600401610ad69061194d565b60405180910390fd5b6040518061012001604052808481526020018381526020018273ffffffffffffffffffffffffffffffffffffffff16815260200160011515815260200160405180602001604052806000815250815260200160405180602001604052806000815250815260200160405180602001604052806000815250815260200160405180602001604052806000815250815260200160405180602001604052806000815250815250600080858152602001908152602001600020600082015181600001556020820151816001019080519060200190610bbb929190611273565b5060408201518160020160006101000a81548173ffffffffffffffffffffffffffffffffffffffff021916908373ffffffffffffffffffffffffffffffffffffffff16021790555060608201518160020160146101000a81548160ff0219169083151502179055506080820151816003019080519060200190610c3f929190611273565b5060a0820151816004019080519060200190610c5c929190611273565b5060c0820151816005019080519060200190610c79929190611273565b5060e0820151816006019080519060200190610c96929190611273565b50610100820151816007019080519060200190610cb4929190611273565b509050508073ffffffffffffffffffffffffffffffffffffffff16837f08a5edaac8b13ae56f455711d7da729d5084fc6fc4811f58c40231cd02a6852760405160405180910390a3505050565b600160009054906101000a900473ffffffffffffffffffffffffffffffffffffffff1673ffffffffffffffffffffffffffffffffffffffff163373ffffffffffffffffffffffffffffffffffffffff1614610d91576040517f08c379a0000000000000000000000000000000000000000000000000000000008152600401610d889061198d565b60405180910390fd5b6000600260008373ffffffffffffffffffffffffffffffffffffffff1673ffffffffffffffffffffffffffffffffffffffff16815260200190815260200160002060006101000a81548160ff02191690831515021790555050565b600160009054906101000a900473ffffffffffffffffffffffffffffffffffffffff1681565b606060008273ffffffffffffffffffffffffffffffffffffffff1660001b905060006040518060400160405280601081526020017f303132333435363738396162636465660000000000000000000000000000000081525090506000602a67ffffffffffffffff811115610eaf577f4e487b7100000000000000000000000000000000000000000000000000000000600052604160045260246000fd5b6040519080825280601f01601f191660200182016040528015610ee15781602001600182028036833780820191505090505b5090507f300000000000000000000000000000000000000000000000000000000000000081600081518110610f3f577f4e487b7100000000000000000000000000000000000000000000000000000000600052603260045260246000fd5b60200101907effffffffffffffffffffffffffffffffffffffffffffffffffffffffffffff1916908160001a9053507f780000000000000000000000000000000000000000000000000000000000000081600181518110610fc9577f4e487b7100000000000000000000000000000000000000000000000000000000600052603260045260246000fd5b60200101907effffffffffffffffffffffffffffffffffffffffffffffffffffffffffffff1916908160001a90535060005b60148110156112675782600485600c846110159190611b21565b6020811061104c577f4e487b7100000000000000000000000000000000000000000000000000000000600052603260045260246000fd5b1a60f81b7effffffffffffffffffffffffffffffffffffffffffffffffffffffffffffff1916901c60f81c60ff16815181106110b1577f4e487b7100000000000000000000000000000000000000000000000000000000600052603260045260246000fd5b602001015160f81c60f81b826002836110ca9190611b77565b60026110d69190611b21565b8151811061110d577f4e487b7100000000000000000000000000000000000000000000000000000000600052603260045260246000fd5b60200101907effffffffffffffffffffffffffffffffffffffffffffffffffffffffffffff1916908160001a90535082600f60f81b85600c846111509190611b21565b60208110611187577f4e487b7100000000000000000000000000000000000000000000000000000000600052603260045260246000fd5b1a60f81b1660f81c60ff16815181106111c9577f4e487b7100000000000000000000000000000000000000000000000000000000600052603260045260246000fd5b602001015160f81c60f81b826002836111e29190611b77565b60036111ee9190611b21565b81518110611225577f4e487b7100000000000000000000000000000000000000000000000000000000600052603260045260246000fd5b60200101907effffffffffffffffffffffffffffffffffffffffffffffffffffffffffffff1916908160001a905350808061125f90611c8d565b915050610ffb565b50809350505050919050565b82805461127f90611c5b565b90600052602060002090601f0160209004810192826112a157600085556112e8565b82601f106112ba57805160ff19168380011785556112e8565b828001600101855582156112e8579182015b828111156112e75782518255916020019190600101906112cc565b5b5090506112f591906112f9565b5090565b5b808211156113125760008160009055506001016112fa565b5090565b600061132961132484611ab5565b611a84565b90508281526020810184848401111561134157600080fd5b61134c848285611c19565b509392505050565b60008135905061136381611d74565b92915050565b600082601f83011261137a57600080fd5b813561138a848260208601611316565b91505092915050565b6000813590506113a281611d8b565b92915050565b6000602082840312156113ba57600080fd5b60006113c884828501611354565b91505092915050565b6000602082840312156113e357600080fd5b60006113f184828501611393565b91505092915050565b6000806040838503121561140d57600080fd5b600061141b85828601611393565b925050602061142c85828601611354565b9150509250929050565b60008060006060848603121561144b57600080fd5b600061145986828701611393565b935050602084013567ffffffffffffffff81111561147657600080fd5b61148286828701611369565b925050604061149386828701611354565b9150509250925092565b600080600080600060a086880312156114b557600080fd5b60006114c388828901611393565b955050602086013567ffffffffffffffff8111156114e057600080fd5b6114ec88828901611369565b945050604086013567ffffffffffffffff81111561150957600080fd5b61151588828901611369565b935050606086013567ffffffffffffffff81111561153257600080fd5b61153e88828901611369565b925050608086013567ffffffffffffffff81111561155b57600080fd5b61156788828901611369565b9150509295509295909350565b61157d81611bd1565b82525050565b61158c81611be3565b82525050565b600061159d82611afa565b6115a78185611b05565b93506115b7818560208601611c28565b6115c081611d63565b840191505092915050565b60006115d682611afa565b6115e08185611b16565b93506115f0818560208601611c28565b80840191505092915050565b6000815461160981611c5b565b6116138186611b16565b9450600182166000811461162e576001811461163f57611672565b60ff19831686528186019350611672565b61164885611ae5565b60005b8381101561166a5781548189015260018201915060208101905061164b565b838801955050505b50505092915050565b6000611688601283611b16565b91507f3b205472616e7366657272656420746f3a2000000000000000000000000000006000830152601282019050919050565b60006116c8600983611b05565b91507f46756c6c20496e666f00000000000000000000000000000000000000000000006000830152602082019050919050565b6000611708600f83611b05565b91507f4974656d206e6f742069737375656400000000000000000000000000000000006000830152602082019050919050565b6000611748601383611b05565b91507f4974656d20616c726561647920697373756564000000000000000000000000006000830152602082019050919050565b6000611788601f83611b05565b91507f4f6e6c792063757272656e74206f776e65722063616e207472616e73666572006000830152602082019050919050565b60006117c8600783611b05565b91507f55706461746564000000000000000000000000000000000000000000000000006000830152602082019050919050565b6000611808602283611b05565b91507f4f6e6c792061646d696e2063616e20706572666f726d2074686973206163746960008301527f6f6e0000000000000000000000000000000000000000000000000000000000006020830152604082019050919050565b600061186e600e83611b05565b91507f4e6f7420617574686f72697a65640000000000000000000000000000000000006000830152602082019050919050565b6118aa81611c0f565b82525050565b60006118bc82856115fc565b91506118c78261167b565b91506118d382846115cb565b91508190509392505050565b60006020820190506118f46000830184611574565b92915050565b60006040820190508181036000830152611913816116bb565b90508181036020830152611926816117bb565b9050919050565b60006020820190508181036000830152611946816116fb565b9050919050565b600060208201905081810360008301526119668161173b565b9050919050565b600060208201905081810360008301526119868161177b565b9050919050565b600060208201905081810360008301526119a6816117fb565b9050919050565b600060208201905081810360008301526119c681611861565b9050919050565b6000610120820190506119e3600083018c6118a1565b81810360208301526119f5818b611592565b9050611a04604083018a611574565b611a116060830189611583565b8181036080830152611a238188611592565b905081810360a0830152611a378187611592565b905081810360c0830152611a4b8186611592565b905081810360e0830152611a5f8185611592565b9050818103610100830152611a748184611592565b90509a9950505050505050505050565b6000604051905081810181811067ffffffffffffffff82111715611aab57611aaa611d34565b5b8060405250919050565b600067ffffffffffffffff821115611ad057611acf611d34565b5b601f19601f8301169050602081019050919050565b60008190508160005260206000209050919050565b600081519050919050565b600082825260208201905092915050565b600081905092915050565b6000611b2c82611c0f565b9150611b3783611c0f565b9250827fffffffffffffffffffffffffffffffffffffffffffffffffffffffffffffffff03821115611b6c57611b6b611cd6565b5b828201905092915050565b6000611b8282611c0f565b9150611b8d83611c0f565b9250817fffffffffffffffffffffffffffffffffffffffffffffffffffffffffffffffff0483118215151615611bc657611bc5611cd6565b5b828202905092915050565b6000611bdc82611bef565b9050919050565b60008115159050919050565b600073ffffffffffffffffffffffffffffffffffffffff82169050919050565b6000819050919050565b82818337600083830152505050565b60005b83811015611c46578082015181840152602081019050611c2b565b83811115611c55576000848401525b50505050565b60006002820490506001821680611c7357607f821691505b60208210811415611c8757611c86611d05565b5b50919050565b6000611c9882611c0f565b91507fffffffffffffffffffffffffffffffffffffffffffffffffffffffffffffffff821415611ccb57611cca611cd6565b5b600182019050919050565b7f4e487b7100000000000000000000000000000000000000000000000000000000600052601160045260246000fd5b7f4e487b7100000000000000000000000000000000000000000000000000000000600052602260045260246000fd5b7f4e487b7100000000000000000000000000000000000000000000000000000000600052604160045260246000fd5b6000601f19601f8301169050919050565b611d7d81611bd1565b8114611d8857600080fd5b50565b611d9481611c0f565b8114611d9f57600080fd5b5056fea264697066735822122096a427214ec3d73086250bf0afdaa0067f487af4df96482388e9145cbdb68c0664736f6c63430008000033",
  "immutableReferences": {},
  "source": "// SPDX-License-Identifier: MIT\r\npragma solidity ^0.8.0;\r\n\r\ncontract LuxuryJewelry {\r\n\r\n    struct JewelryItem {\r\n        uint256 id;\r\n        string description;\r\n        address currentOwner;\r\n        bool isIssued;\r\n        string miningInfo;       // \r\n        string cuttingInfo;      // \r\n        string engravingInfo;    // \r\n        string makingInfo;       // \r\n        string ownershipHistory; // \r\n    }\r\n\r\n    mapping(uint256 => JewelryItem) public jewelryItems;\r\n    address public admin;\r\n    mapping(address => bool) private authorizedUsers;\r\n\r\n    event JewelryIssued(uint256 indexed id, address indexed owner);\r\n    event OwnershipTransferred(uint256 indexed id, address indexed from, address indexed to);\r\n    event JewelryInfoUpdated(uint256 indexed id, string infoType, string info);\r\n\r\n    constructor() {\r\n        admin = msg.sender;\r\n    }\r\n\r\n    modifier onlyAdmin() {\r\n        require(msg.sender == admin, \"Only admin can perform this action\");\r\n        _;\r\n    }\r\n\r\n    modifier onlyAuthorized() {\r\n        require(authorizedUsers[msg.sender], \"Not authorized\");\r\n        _;\r\n    }\r\n\r\n    function issueJewelryItem(uint256 _id, string memory _description, address _owner) public onlyAdmin {\r\n        require(!jewelryItems[_id].isIssued, \"Item already issued\");\r\n        jewelryItems[_id] = JewelryItem({\r\n            id: _id,\r\n            description: _description,\r\n            currentOwner: _owner,\r\n            isIssued: true,\r\n            miningInfo: '',\r\n            cuttingInfo: '',\r\n            engravingInfo: '',\r\n            makingInfo: '',\r\n            ownershipHistory: ''\r\n        });\r\n        emit JewelryIssued(_id, _owner);\r\n    }\r\n\r\n    function transferOwnership(uint256 _id, address _newOwner) public {\r\n        require(jewelryItems[_id].isIssued, \"Item not issued\");\r\n        require(msg.sender == jewelryItems[_id].currentOwner, \"Only current owner can transfer\");\r\n        jewelryItems[_id].currentOwner = _newOwner;\r\n        jewelryItems[_id].ownershipHistory = string(abi.encodePacked(jewelryItems[_id].ownershipHistory, \"; Transferred to: \", toString(_newOwner)));\r\n        emit OwnershipTransferred(_id, msg.sender, _newOwner);\r\n    }\r\n\r\n    function updateJewelryInfo(uint256 _id, string memory _miningInfo, string memory _cuttingInfo, string memory _engravingInfo, string memory _makingInfo) public onlyAuthorized {\r\n        require(jewelryItems[_id].isIssued, \"Item not issued\");\r\n        jewelryItems[_id].miningInfo = _miningInfo;\r\n        jewelryItems[_id].cuttingInfo = _cuttingInfo;\r\n        jewelryItems[_id].engravingInfo = _engravingInfo;\r\n        jewelryItems[_id].makingInfo = _makingInfo;\r\n        emit JewelryInfoUpdated(_id, \"Full Info\", \"Updated\");\r\n    }\r\n\r\n    function authorizeUser(address _user) public onlyAdmin {\r\n        authorizedUsers[_user] = true;\r\n    }\r\n\r\n    function revokeUser(address _user) public onlyAdmin {\r\n        authorizedUsers[_user] = false;\r\n    }\r\n\r\n    function toString(address _addr) private pure returns (string memory) {\r\n        bytes32 value = bytes32(uint256(uint160(_addr)));\r\n        bytes memory alphabet = \"0123456789abcdef\";\r\n        bytes memory str = new bytes(42);\r\n        str[0] = '0';\r\n        str[1] = 'x';\r\n        for (uint256 i = 0; i < 20; i++) {\r\n            str[2+i*2] = alphabet[uint8(value[i + 12] >> 4)];\r\n            str[3+i*2] = alphabet[uint8(value[i + 12] & 0x0f)];\r\n        }\r\n        return string(str);\r\n    }\r\n}\r\n\r\n\r\n\r\n",
  "sourcePath": "C:\\Users\\shibe\\Desktop\\COMP5565_DAPP\\project\\truffle\\contracts\\LuxuryJewelry.sol",
  "compiler": {
    "name": "solc",
    "version": "0.8.0+commit.c7dfd78e.Emscripten.clang"
  },
  "schemaVersion": "3.4.16",
  "updatedAt": "2023-11-28T14:18:26.256Z",
  "networkType": "ethereum",
  "devdoc": {
    "kind": "dev",
    "methods": {},
    "version": 1
  },
  "userdoc": {
    "kind": "user",
    "methods": {},
    "version": 1
  }
}